:020000040000FA
:100000000000000000009729FD000308FE00031314
:1000100083120A08FF008A110A12031383120B19B4
:1000200014280C18D328D8280B11F61D732875191D
:100030002328761923281010F401FA01F801F90198
:100040008E018F0110147615F80A0319F90AF618B3
:10005000422832307806031D732801307906031DCB
:1000600073280030013E031D32280030013E031D7D
:1000700036283230013E031D3A281010F611761151
:100080000C1073281F307806031D73280030013EC2
:10009000031D47280030013E031D4B280030013E60
:1000A000031D4F280030013E031D53280030013E40
:1000B000031D57280030013E031D5B280030013E20
:1000C000031D5F280030013E031D6328BA30013E46
:1000D000031D672800000000000000001010F6114A
:1000E00076110C107328D00A031D7F28D10AFA302C
:1000F0005106031D7F28F5138511F510DF20051D1E
:10010000EC01051D8F286C0FEC0A0A306C060319F0
:100110007516FA306C060319F5150319F516891DC5
:10012000CF28D001D1014D0FCD0ACF0A0319CE0A35
:100130000F304D06031DA628B80A0330B805ED019F
:10014000EE01EF0175147517F51CF611F51CB228B8
:10015000FA304D06031DBE28FB0A0A307B06031940
:10016000B628CC28FA304D06031DBE28F51385119C
:10017000DF20B8030330B8057514CC280A304E06CA
:10018000031DC428F514F5170B304E06031DCC28AB
:10019000F510F5138511DF20F51BEA20D828CD01D5
:1001A000CF01CE01CC280C10F40A0319FA0AD82882
:1001B0007F088A007E088300FD0E7D0E0900061769
:1001C00007178716061477180800061307138712F7
:1001D00006100800771CF2288A150A12B9228A1123
:1001E0000A1208000613071387120610861707164F
:1001F0000615061686168717861486157C080319B9
:100200000F2901307C060319222902307C060319CC
:10021000352903307C0603194829FC010F29F01FFA
:100220008613701F0712F01E0611701E0612F01DB5
:100230008612701D8713F01C8610701C861106171D
:1002400000006029F11F8613711F0712F11E0611AD
:10025000711E0612F11D8612711D8713F11C861086
:10026000711C8611071700006029F21F8613721F88
:100270000712F21E0611721E0612F21D8612721D60
:100280008713F21C8610721C8611871600006029E5
:10029000F31F8613731F0712F31E0611731E061237
:1002A000F31D8612731D8713F31C8610731C8611B1
:1002B000761C5D298611D01F861506140000602962
:1002C000FC0A04307C060319FC010800003E0319F7
:1002D0000334FF3E03199F34FF3E03192534FF3ECC
:1002E00003190D34FF3E03199934FF3E03194934B5
:1002F000FF3E03194134FF3E03191F34FF3E03192B
:100300000134FF3E03190934FF3E03191134FF3E47
:100310000319C134FF3E03196334FF3E03198534CA
:10032000FF3E03196134FF3E0319713403348A150B
:100330000A1200202D238A110A12C227C2278A1509
:100340000A12B3228A110A1220303A06031DC32969
:100350001430C3270313831600309F000313831246
:10036000BD309F000130D3279F149F18B5291E0868
:10037000B900BA00BA0ABA0ABA0A8A150A1296224B
:100380008A110A12D2290313831600309F00031327
:100390008312BD309F000130D3279F149F18CE29B0
:1003A0001E08B90039083A020318E629C130F000E6
:1003B000E030F100E330F200C530F3001E30C32717
:1003C000051DE629F5138511DF20E5298A150A1296
:1003D00090228A110A12ED01EE01EF01F51175125A
:1003E000F5127513F51CF529E52D851DF229380840
:1003F000031DFD29D2270D22F2293803031D032AEC
:10040000D227B424F22902303802031D0A2AD22747
:100410009D22F229D2274123F229761A2A2A76161A
:10042000F6127613F6137130F000B0278A150A120F
:100430004A228A110A12FA30D327FA30D327FA3027
:10044000D327751C282A8A150A129C228A110A129F
:10045000F512F511751F2E2A751308007511F61087
:10046000F615F619312A7A08031D672A7408C600A2
:100470000F08C7000E08C8008E22003E0319432A49
:100480007A27761008007F228E22003E03194C2A1C
:100490007A2771107614080085228E22003E0319F7
:1004A000552A7A2772107614080085228E22003E83
:1004B00003195D2A7A277614080085224708BE00B2
:1004C0004808BF007E27711073107610080074086A
:1004D000C6000F08C7000E08C800FA0CC60CC70CEF
:1004E000C80CC330C4005030C5008A150A1244211C
:1004F0008A110A127E277110731076100800740892
:10050000C6000F08C7000E08C800C4010A30C500A5
:100510008A150A1244218A110A1208004608031D8E
:100520000034273047020319982A03180034013495
:1005300010304802031800340134761BBA2A7617AB
:100540007612F612F6136330F000B0278A150A12FD
:100550005F228A110A12FA30D327FA30D327FA30F1
:10056000D327751CB82A8A150A129C228A110A12EE
:10057000F512F511751FBE2A751308007511F610D6
:10058000F615F619C12A7408C600AD000F08C70099
:10059000AE000E08C800AF005408D7005308D800BA
:1005A0005208D900DA01DB01DC018A150A12F420B5
:1005B0008A110A12003E0319172B570858045904D0
:1005C000031DEC2AF51CAC230130D900DA01DB0154
:1005D000DC01EC2A0319252B0130D902031CD802B7
:1005E000031CD7035708031D332B5B08DC005A0894
:1005F000DB005908DA005808D9005608BE00550833
:10060000BF008A150A1254208A110A12B623C601A5
:10061000C7015B08C8000030C4001A30C5008A1545
:100620000A1244218A110A124808DB00042C761BA6
:10063000E530F61BF530F61AE330F0006130F100DA
:10064000F530F200F530F3000800761BE530F61BBC
:10065000F530F61AE330F000FD30F100003066218D
:10066000F200F3000800761BE530F61BF530F61AB1
:10067000E330F000FD30F100FD30F200FD30F3001A
:100680000800F61B5E2BF6177612F6127613F5307D
:10069000F000B0278A150A121C228A110A12FA30B9
:1006A000D327FA30D327FA30D327751C5C2B8A1551
:1006B0000A129C228A110A12F512F511751F622B7B
:1006C000751308007511F610F615F619652B7408E8
:1006D000C600AD000F08C700AE000E08C800AF008E
:1006E0005408D7005308D8005208D900DA01DB01BA
:1006F000DC018A150A12F4208A110A12003E03193D
:10070000172B570858045904031D902BF51CAC23D4
:100710000130D900DA01DB01DC01902B0319252B14
:100720000130D902031CD802031CD7035708031D4C
:10073000332B5B08DC005A08DB005908DA00580844
:10074000D9005608BE005508BF008A150A12542069
:100750008A110A12B623F52BF51E0800F5122D0892
:10076000D4002E08D3002F08D2000800F518080086
:10077000F51DC52BF51157085804031DC52B590845
:10078000EF005A08EE005B08ED006D08DB0203186D
:10079000D62B0130DA020318D62B0130D902031808
:1007A000D62B0130D8020318D62BD7036E08DA02F5
:1007B0000318E32B0130D9020318D62B0130D802DD
:1007C0000318D62BD7036F08D9020030031C013061
:1007D000D8020030031C0130D702D71FF42BD701F9
:1007E000D801D901DA01DB010800C601C7015B08A5
:1007F000C8000030C4001A30C5008A150A1244210E
:100800008A110A124808DB0057085804031D3B2CC4
:100810000330590203190F2C03183B2C132CE7301B
:100820005A0203183B2C5908BE005A08BF009027F3
:1008300041080F396621F000420E0F396621F100A0
:1008400042080F396621F2005B080F396621F30078
:1008500072107610080057085804031D0134273021
:1008600059020319362C03180134003410305A028F
:100870000318013400342B24003E031D522C75272D
:100880007610080059085A04031D013427305B0212
:1008900003194D2C03180134003410305C02031886
:1008A00001340034DB01DC010A30C600C701C80195
:1008B0008A150A12F4208A110A124224003E031DEE
:1008C000652C7027711076140800D701D8010A3002
:1008D000C800C701C6018A150A12F4208A110A123B
:1008E0004224003E031D782C7027721076140800F5
:1008F000D701D8010A30C800C701C6018A150A12FB
:10090000F4208A110A124224003E031D8A2C70270B
:1009100076140800D701D8010A30C800C701C60103
:100920008A150A12F4208A110A124224003E031D7D
:100930009E2C70277110731076100800D701D80113
:100940000A30C800C701C6018A150A12F4208A11AC
:100950000A124224003E031DB22C7027721073103D
:1009600076100800332B0800F61AD12CF6167612F2
:100970007613F613E330F000B0278A150A12EE2141
:100980008A110A12FA30D327FA30D327FA30D32744
:10099000751CCF2C8A150A129C228A110A12F51294
:1009A000F511751FD52C751308007511F610F61585
:1009B000F619D82CF40C8F0C8E0CF40C8F0C8E0CBA
:1009C000F41374137408C600AD000F08C700AE001E
:1009D0000E08C800AF005408D7005308D8005208CA
:1009E000D900DA01DB01DC018A150A12F4208A1130
:1009F0000A12003E0319172B570858045904031D07
:100A00000B2DF51CAC230130D900DA01DB01DC0130
:100A10000B2D0319252B5C08DF00DE005B08C200EC
:100A2000DD005A08C100DC005908C000DB008A154F
:100A30000A12B2208A110A120130D802031CD7030D
:100A40005A08DC005908DB005808DA005708D900BA
:100A50005608BE005508BF008A150A1254208A1194
:100A60000A125708031D332BB623C6015B08C700C3
:100A70005C08C8001930C4009A30C5008A150A12F3
:100A800044218A110A124808DB00C6014B08C7003E
:100A90004C08C8000230C4009030C5008A150A1204
:100AA00044218A110A124808DC0058085904031D21
:100AB000742D63305A020318742DBE015A08BF000A
:100AC0009027420E0F396621F00042080F39662147
:100AD000F1005B080F396621F2005C080F396621CE
:100AE000F300711076100800042C57085804031DF9
:100AF000852D033059020319802D0318852D842D6F
:100B0000E7305A020318852D132C2B24003E031DB9
:100B10008C2D752776100800DB01DC010A30C60039
:100B2000C701C8018A150A12F4208A110A12422448
:100B3000003E031D9F2D7027711076140800D70109
:100B4000D8010A30C800C701C6018A150A12F4206C
:100B50008A110A124224003E031DB22D7027721022
:100B600076140800D701D8010A30C800C701C601B1
:100B70008A150A12F4208A110A124224003E031D2B
:100B8000C42D702776140800D701D8010A30C80098
:100B9000C701C6018A150A12F4208A110A124224DA
:100BA000003E031DD82D70277110731076100800B9
:100BB000332B080008000D306621F0000B30662151
:100BC000F10000306621F2000800FB018515DB25ED
:100BD00000306621F300C2278A150A125F228A11AB
:100BE0000A12F512F511B80138080319F82DB801E9
:100BF00001307B060319092E7511F610F615F6194A
:100C0000FF2D7408D4000F08D3000E08D200332241
:100C1000F42D8A150A1291218A110A12DB2501305E
:100C20006621F300C2278A150A121C228A110A12B1
:100C3000F512F511B801380803191F2EB80102305A
:100C40007B060319302E7511F610F615F619262EAF
:100C50007408D4000F08D3000E08D20033221B2ED4
:100C60008A150A12A1218A110A12DB250230662197
:100C7000F300C2278A150A12EE218A110A12F51210
:100C8000F511B80138080319462EB80103307B0668
:100C900003195F2E7511F610F615F6194D2EF40C8A
:100CA0008F0C8E0CF40C8F0C8E0CF41374137408D0
:100CB000D4000F08D3000E08D2003322422E8A152A
:100CC0000A12B1218A110A12DB2503306621F300D2
:100CD000C2278A150A125F228A110A12F512F5112B
:100CE0007612F6127617F613B801380803197D2E1E
:100CF000B8010A30D5070318D60A751E842E75125E
:100D00000130D502031CD60304307B060319AC2E38
:100D100013305602031C972E031D922EF0305502FD
:100D2000031C972E1130D6000830D500A52E1130A7
:100D30005602031CA12E031DA52E013055020318D7
:100D4000A52E1330D600E830D5007511F610F61533
:100D5000F619A82EC322752E8A150A12C1218A11EE
:100D60000A12DB2504306621F300C2278A150A1215
:100D70001C228A110A12F512F5117612F612761358
:100D8000F617B80138080319CA2EB8010A30D5077A
:100D90000318D60A751ED12E75120130D502031C18
:100DA000D60305307B060319F92E09305602031CC1
:100DB000E42E031DDF2EF0305502031CE42E063016
:100DC000D6000F30D500F22E06305602031CEE2E50
:100DD000031DF22E083055020318F22E0930D600FA
:100DE000E830D5007511F610F615F619F52E6723C3
:100DF000C22E8A150A12D0218A110A12DB2505306B
:100E00006621F300C2278A150A12EE218A110A12FE
:100E1000F512F5117612F6167613F613B8013808A6
:100E20000319172FB8010A30D5070318D60A751E03
:100E30001E2F75120130D502031CD60306307B0627
:100E400003194E2F04305602031C312F031D2C2F83
:100E5000C0305502031C312F0130D6001830D500A8
:100E60003F2F01305602031C3B2F031D3F2F103034
:100E7000550203183F2F0430D600B830D500751145
:100E8000F610F615F619422FF40C8F0C8E0CF40C9C
:100E90008F0C8E0CF4137413E2240F2F8A150A1290
:100EA000DF218A110A120D306621F0000B30662115
:100EB000F100C530F200E530F3002030BA008A15A9
:100EC0000A1296228A110A120830B000D227B00BFB
:100ED000662F0930FB00F5108511F513DF20F2298C
:100EE0005B08BE005C08BF007E2F5908BE005A0890
:100EF000BF007E2F4708BE004808BF009027410E64
:100F00000F396621F00041080F396621F100420EC9
:100F10000F396621F20042080F396621F3000800FC
:100F20001030C300C001C101C201A82F3330C00777
:100F3000C107C2070330C01DC002C11DC102C21DCE
:100F4000C2023030C01FC002C11FC102C21FC20294
:100F5000BF0DBE0DC20DC10DC00DC30B962F0800F5
:100F60004930F1006130F200E130F3000A30B000A6
:100F7000D227B00BB82F00306621F000F100F2004C
:100F8000F30008000A30BD00D227BD0BC42F0800B3
:100F90000F39093C0318CF2F093C373E0800093CA4
:100FA000303E08006430BC00BB01000000000000BF
:100FB0000000000000000000000000000000000031
:100FC00000000000000000000000BB0BD52FBC0B90
:040FD000D52F080011
:10100000203084008001840A841F0228A0308400DC
:101010008001840A031D0828203084008317800182
:10102000840A841F0F288313031783160030880057
:1010300000308900031383169501031383122730B0
:1010400085000030860000308700003089000313DF
:101050008316073085000030860001308700083095
:10106000890003178312F4308800C2308900031707
:10107000831601308500031383120630900003139A
:10108000831600309F000313831203138316C530A9
:10109000810001308C0000308D0003138312E0309A
:1010A0008B00F513F510080000005908D7005A0806
:1010B000D8005B08D9005C08DA00DB01DC015708C6
:1010C000C6005808C7005908C8005A08CA000830A6
:1010D000C900BF0C03187B28C90B6928C900BE0CC6
:1010E00003187928C90B6F28D701D801D901DA0173
:1010F00000340310A82803108E28BF0C031C8E2870
:101100004A08DA0748080318480FD90747080318A0
:10111000470FD80746080318460FD707D70CD80C37
:10112000D90CDA0CDB0CC90B7D280830C900BE0CC9
:10113000031CA8284A08DA0748080318480FD907EB
:1011400047080318470FD80746080318460FD70764
:10115000D70CD80CD90CDA0CDB0CDC0CC90B97289B
:1011600000000800D701D801D901DA012030C900F8
:10117000DB0CDC0CDD0CDE0C031CCC285F08DA0772
:1011800042080318420FD90741080318410FD80736
:1011900040080318400FD707D70CD80CD90CDA0C2D
:1011A000DB0CDC0CDD0CDE0CC90BBC280800D70105
:1011B000D801D9011830C900DA0CDB0CDC0C031C97
:1011C000EB284208D90741080318410FD807400807
:1011D0000318400FD707D70CD80CD90CDA0CDB0C4E
:1011E000DC0CC90BDF280800460847044804031933
:1011F0000034C001C101C201C3013030C900DC0D9F
:10120000DB0DDA0DD90DD80DD70DC20DC10DC00DF6
:10121000C30D4808C31B1929C2024708031C470F06
:10122000C1024608031C460FC0020130031CC30262
:101230002529C20747080318470FC10746080318A6
:10124000460FC00701300318C307C90BFF28DC0D88
:10125000DB0DDA0DD90DD80DD70D0134C601C7014C
:10126000C801CA01C817C40CC50C031C3D294C0891
:10127000C7074B0803184B0FC607C60CC70CC80C92
:10128000CA0C031C33290800CB01CC011830C9005B
:10129000C80DC70DC60DCC0DCB0DC90D4508CC0230
:1012A0004408031C440F4B020318491449185B29D6
:1012B0004508CC074B08CB000310C90CC90B4829C3
:1012C000C80DC70DC60D08000A30B7003608031751
:1012D00083128C00031383123508031783128D00C9
:1012E000031783168B138C130C1555308D00AA3001
:1012F0008D008C1464008C187A290C118B17031341
:1013000083123608031783168C130C14000003177E
:1013100083120C060313831203190034B70B6629DA
:1013200001340230B5005208B60064210330B50024
:101330005308B60064210430B5005408B600642197
:1013400008000830B5005208B60064210930B50025
:101350005308B60064210A30B5005408B600642171
:1013600008000530B5005208B60064210630B5000B
:101370005308B60064210730B5005408B600642154
:1013800008000A30D502031CD6030B30B5005508FF
:10139000B60064210C30B5005608B6006421080080
:1013A0000A30D502031CD6030F30B5005508B6002D
:1013B00064211030B5005608B600642108000A30D8
:1013C000D502031CD6030D30B5005508B6006421C4
:1013D0000E30B5005608B6006421080003178316C6
:1013E000033088000030890003178312F23089002F
:1013F000F53088000313831682309700031383129D
:10140000071587100530B500A3223608D200063034
:10141000B500A3223608D3000730B500A322360852
:10142000D4000D30B500A3223608D5000E30B5002B
:10143000A3223608D6008C2A0317831603308800AF
:101440000030890003178312F2308900F5308800DC
:101450000313831682309700031383120715871036
:101460000830B500A3223608D2000930B500A32207
:101470003608D3000A30B500A3223608D4000F3056
:10148000B500A3223608D5001030B500A3223608D7
:10149000D6008C2A03178316033088000030890099
:1014A00003178312F2308900F43088000313831687
:1014B0008230970003138312071187100800031767
:1014C0008316033088000030890003178312F2303E
:1014D0008900F530880003138316823097000313C8
:1014E0008312071187140230B500A3223608D200F8
:1014F0000330B500A3223608D3000430B500A32280
:101500003608D4000B30B500A3223608D5000C30C5
:10151000B500A3223608D600AD01AE01AF01080028
:101520000030B500A3223608B80008000130B5002D
:101530003A08B6006421080075100030B50038087C
:10154000B600642108003508031783128D000317C5
:1015500083168C130C140000031783120C0803135A
:101560008312B60008000130B500A3223608BA0085
:1015700008000617071787160614861307120611A8
:10158000061286128713861086117C080319D62A44
:1015900001307C060319E92A02307C060319FC2A73
:1015A00003307C0603190F2BFC01D62AF01F861787
:1015B000701F0716F01E0615701E0616F01D861603
:1015C000701D8717F01C8614701C8615061300000A
:1015D000272BF11F8617711F0716F11E0615711EA6
:1015E0000616F11D8616711D8717F11C8614711CD5
:1015F000861507130000272BF21F8617721F071688
:10160000F21E0615721E0616F21D8616721D87172B
:10161000F21C8614721C861587120000272BF31FFC
:101620008617731F0716F31E0615731E0616F31D85
:101630008616731D8717F31C8614731C8615761C7B
:10164000242B8615D01F861106100000272BFC0ABC
:1016500004307C060319FC010800031383161515DA
:10166000061581130313831206137B2303138316BA
:1016700000309F0003138312E1309F007B239F14EF
:101680009F18402B7714DC301E02031877100313C9
:10169000831615110611811703138312031783167E
:1016A000091003138312771C6C2B86130712061183
:1016B000061286128713861086118023CD01CF0172
:1016C000CE01F51785157130F000E330F10063307D
:1016D000F200F530F30008008023CD01CF01CE01E8
:1016E000F51785157130F000E330F1006330F2003A
:1016F000F530F30008000D30BB00BB0B7D2B08005C
:101700000A30BD008623BD0B822B08006430BC006C
:10171000BB0100000000000000000000000000000D
:1017200000000000000000000000000000000000B9
:0C1730000000BB0B892BBC0B892B0800B0
:022000000000DE
:02400E0082230B
:02401000FF3877
:1042000000002000A00086000100FB003800010033
:1042100088008A00010094001100A00002008000C4
:104220000700000000000000000000000000000087
:10423000000000000000000000000000000000007E
:104240000000000000000000000001000200030068
:10425000040001000200030004000100020003004A
:10426000040001000200030004000100020003003A
:1042700004006200790020004700410052004D0018
:10428000410053004800200047002E0056002E0039
:10429000330031002D00300033002D00320030009B
:1042A00031003100560045005200200032002E003F
:1042B00031002E0030002B00330038002D0030007C
:1042C000390035002D003500370036002D0039004B
:0842D00038002D00310034001C
:00000001FF
